:020000040800F2
:10000000002800209D1C00082D1C0008331C00083F
:10001000391C00083F1C0008451C000800000000B7
:100020000000000000000000000000004B1C000861
:10003000571C000800000000631C00086F1C00082B
:10004000E51C0008E51C0008E51C0008E51C00088C
:10005000E51C0008E51C0008E51C0008E51C00087C
:10006000E51C0008E51C0008E51C0008E51C00086C
:10007000E51C0008E51C0008E51C0008E51C00085C
:10008000E51C0008E51C0008E51C0008E51C00084C
:10009000E51C0008E51C0008E51C0008E51C00083C
:1000A000E51C0008E51C0008E51C0008E51C00082C
:1000B0007D1C0008E51C000800000000E51C00088D
:1000C000E51C00080000000000000000E51C00081E
:1000D00000000000E51C0008E51C0008000000000E
:1000E000E51C0008E51C0008E51C000800000000F5
:1000F0000000000000000000000000000000000000
:0C01000000000000000000005FF808F1A3
:10010C0010B5054C237833B9044B13B10448AFF345
:10011C0000800123237010BD480000200000000067
:10012C001433000808B5034B1BB103490348AFF364
:10013C00008008BD000000004C00002014330008B3
:10014C0080B400AF064B1B68012B04D1044B00227A
:10015C001A60012300E000231846BD4680BC70479E
:10016C006400002080B400AF064B1B68012B04D147
:10017C00044B00221A60012300E000231846BD4600
:10018C0080BC70476800002080B400AF064B1B6831
:10019C00012B04D1044B00221A60012300E0002340
:1001AC001846BD4680BC70476C00002080B400AF80
:1001BC00034B01221A6000BFBD4680BC704700BFD4
:1001CC006400002080B400AF034B01221A6000BF12
:1001DC00BD4680BC704700BF6800002080B400AFF3
:1001EC00034B01221A6000BFBD4680BC704700BFA4
:1001FC006C00002080B500AF1F4B1B681F4A1360BA
:10020C001F4B1B681C4A13604FF480611D4802F0A1
:10021C004FF803461A461A4B1A60184B1A68164BBD
:10022C001B689A4225D1144B1A68154B1B689A42CD
:10023C001FD1154B1A68124B1B689A420DD0104BEC
:10024C001B68114A13600E4B1B68002B11D1FFF772
:10025C00ADFF0E4B32221A600BE00C4B1B68013BBE
:10026C000A4A1360094B1B68002B02D1064B012272
:10027C001A6000BF80BD00BF0400002000000020F9
:10028C0008000020000801400C0000203000002075
:10029C0080B500AF1F4B1B681F4A13601F4B1B68B8
:1002AC001C4A13604FF400611D4802F001F803462C
:1002BC001A461A4B1A60184B1A68164B1B689A424E
:1002CC0025D1144B1A68154B1B689A421FD1154B3C
:1002DC001A68124B1B689A420DD0104B1B68114ABE
:1002EC0013600E4B1B68002B11D1FFF76BFF0E4BED
:1002FC0032221A600BE00C4B1B68013B0A4A13605C
:10030C00094B1B68002B02D1064B01221A6000BF5F
:10031C0080BD00BF14000020100000201800002039
:10032C00000801401C0000203400002080B500AF04
:10033C001F4B1B681F4A13601F4B1B681C4A136022
:10034C004FF480511D4801F0B3FF03461A461A4B77
:10035C001A60184B1A68164B1B689A4225D1144B1D
:10036C001A68154B1B689A421FD1154B1A68124B11
:10037C001B689A420DD0104B1B68114A13600E4B30
:10038C001B68002B11D1FFF729FF0E4B32221A608C
:10039C000BE00C4B1B68013B0A4A1360094B1B68B2
:1003AC00002B02D1064B01221A6000BF80BD00BF9A
:1003BC00240000202000002028000020000801401C
:1003CC002C0000203800002080B500AFB54B1B6816
:1003DC00013B042B00F2C18401A252F823F000BFB0
:1003EC0001040008E5040008FD060008C90800081F
:1003FC00D30A000801228021AB4801F070FF0122D2
:10040C004FF48071A84801F06AFF01224FF400718B
:10041C00A54801F064FF01224FF48061A24801F06D
:10042C005EFF01224FF400619F4801F058FF01224A
:10043C004FF480519C4801F052FF9C4B1B689C4A26
:10044C0082FB03125211DB17D31A9A4A1360974B93
:10045C001B68974A82FB03125211DB17D31A964A78
:10046C001360964B1B68924A82FB03125211DB17E6
:10047C00D31A934A1360914B1B688D4A82FB03126B
:10048C005211DB17D31A8F4A13608F4B1B68884AA3
:10049C0082FB03125211DB17D31A8C4A13608A4B5E
:1004AC001B68834A82FB03125211DB17D31A884A4A
:1004BC0013607C4B02221A60864B00221A60824B1E
:1004CC001B68184601F04CFA192001F071FA6420EF
:1004DC0001F082FA00F048BC01228021724801F040
:1004EC00FEFE00224FF480716F4801F0F8FE0022EE
:1004FC004FF400716C4801F0F2FE00224FF4806161
:10050C00694801F0ECFE00224FF40061664801F0EE
:10051C00E6FE01224FF48051634801F0E0FE6E4B81
:10052C001B68012B0AD15F4B03221A60634B1B68BB
:10053C00184601F015FA674B00221A60674B1B68CE
:10054C00012B40F0948001224021654801F0C7FE48
:10055C0001228021624801F0C2FE01224FF4807119
:10056C005F4801F0BCFE01224FF400715C4801F0C1
:10057C00B6FE584B1B68032B6AD801A252F823F025
:10058C009D050008C7050008FB05000827060008A4
:10059C00484B1B68534A82FB03129210DB17D31A89
:1005AC00514A1360504B1B68184601F027F8002283
:1005BC0040214B4801F093FE4AE03E4B1968494BF1
:1005CC0083FB01239A10CB17D21A13469B001344BA
:1005DC005B00CA1A444B1A60434B1B68184601F067
:1005EC000DF8002280213E4801F079FE30E0384BB6
:1005FC001B683C4A82FB03129210DB17D31A3A4A4F
:10060C001360394B1B68184600F0F8FF00224FF4BA
:10061C008071334801F063FE1AE02D4B1968314BA1
:10062C0083FB01239A10CB17D21A13469B00134459
:10063C005B00CA1A2C4B1A602B4B1B68184600F037
:10064C00DDFF00224FF40071254801F048FE00BF89
:10065C00204B1B6801335A4203F0030302F00302E0
:10066C0058BF53421B4A1360192001F0A1F91F4BCC
:10067C001B68012B0CD10F4B1B68013B0D4A1360FF
:10068C00134B1B68013B124A1360642001F0A4F960
:10069C00FFF756FD0346012B40F06183014B0A2204
:1006AC001A605CE394000020000C0140A0000020C4
:1006BC001F85EB51EC000020700000209C000020F6
:1006CC00E40000207400002098000020E8000020C6
:1006DC00780000207C000020A8000020B80000203A
:1006EC00000801406766666680000020C00000209C
:1006FC0001228021B84801F0F2FD00224FF48071F4
:10070C00B54801F0ECFD00224FF40071B24801F045
:10071C00E6FD00224FF48061AF4801F0E0FD0122BC
:10072C004FF40061AC4801F0DAFD00224FF4805127
:10073C00A94801F0D4FDA94B1B68012B0AD1A84B89
:10074C0004221A60A74B00221A60A74B1B6818469C
:10075C0001F006F9A54B1B68012B40F09480012297
:10076C004021A34801F0BBFD01228021A04801F0EB
:10077C00B6FD01224FF480719D4801F0B0FD0122BD
:10078C004FF400719A4801F0AAFD964B1B68032B9D
:10079C006AD801A252F823F0B5070008DF07000859
:1007AC00130800083F080008924B1B68924A82FB12
:1007BC0003129210DB17D31A904A13608F4B1B68ED
:1007CC00184600F01BFF00224021894801F087FDEC
:1007DC004AE0884B1968884B83FB01239A10CB178E
:1007EC00D21A13469B0013445B00CA1A834B1A603F
:1007FC00824B1B68184600F001FF002280217C48C8
:10080C0001F06DFD30E07E4B1B687B4A82FB0312CE
:10081C009210DB17D31A794A1360784B1B68184671
:10082C0000F0ECFE00224FF48071714801F057FD8E
:10083C001AE0734B1968704B83FB01239A10CB178A
:10084C00D21A13469B0013445B00CA1A6B4B1A60F6
:10085C006A4B1B68184600F0D1FE00224FF4007161
:10086C00634801F03CFD00BF5E4B1B6801335A42EC
:10087C0003F0030302F0030258BF5342594A1360BA
:10088C00192001F095F85F4B1B68012B0CD1594BCB
:10089C001B68013B574A1360594B1B68013B584A74
:1008AC001360642001F098F8FFF74AFC0346012B13
:1008BC0040F057824A4B0A221A6052E200228021F1
:1008CC00454801F00CFD00224FF48071424801F0C4
:1008DC0006FD01224FF400713F4801F000FD01229A
:1008EC004FF480613C4801F0FAFC00224FF40061A7
:1008FC00394801F0F4FC00224FF48051364801F0E5
:10090C00EEFC364B1B68012B0AD1354B05221A60C5
:10091C00344B00221A603C4B1B68184601F020F83F
:10092C00324B1B68012B40F0B38001224021304830
:10093C0001F0D5FC012280212D4801F0D0FC0122D0
:10094C004FF480712A4801F0CAFC01224FF4007167
:10095C00274801F0C4FC234B1B68032B00F2898051
:10096C0001A252F823F000BF85090008AF09000866
:10097C001D0A0008490A0008244B1B681E4A82FB0A
:10098C0003129210DB17D31A1C4A13601B4B1B6803
:10099C00184600F033FE00224021154801F09FFC60
:1009AC0067E01A4B1968144B83FB01239A10CB1781
:1009BC00D21A13469B0013445B00CA1A0F4B1A60E1
:1009CC000E4B1B68184600F019FE002280210848C7
:1009DC0001F085FC4DE000BF000C0140A800002098
:1009EC00940000207C00002098000020B80000201B
:1009FC0000080140EC00002067666666800000205D
:100A0C0074000020C00000209C000020E8000020A2
:100A1C009D4B1B689D4A82FB03129210DB17D31A65
:100A2C009B4A13609A4B1B68184600F0E7FD0022A6
:100A3C004FF48071974801F052FC1AE0924B196800
:100A4C00924B83FB01239A10CB17D21A13469B00AF
:100A5C0013445B00CA1A8E4B1A608D4B1B681846E8
:100A6C0000F0CCFD00224FF400718A4801F037FCF5
:100A7C0000BF894B1B6801335A4203F0030302F099
:100A8C00030258BF5342844A1360192000F090FFB0
:100A9C00824B1B68012B0CD1814B1B68013B804A9C
:100AAC001360794B1B68013B774A1360642000F09C
:100ABC0093FFFFF745FB0346012B40F05481794B24
:100ACC000A221A604FE100228021774801F007FCCE
:100ADC0001224FF48071744801F001FC00224FF4A4
:100AEC000071714801F0FBFB01224FF480616E48EC
:100AFC0001F0F5FB00224FF400616B4801F0EFFBB5
:100B0C0000224FF48051684801F0E9FB674B1B68E9
:100B1C00012B48D1634B02221A60654B1B68654A56
:100B2C0082FB03125211DB17D31A634A1360604B1A
:100B3C001B68604A82FB03125211DB17D31A013374
:100B4C00514A13605D4B1B685A4A82FB03125211C7
:100B5C00DB17D31A01335A4A1360584B1B68554A9A
:100B6C0082FB03125211DB17D31A564A1360564BF1
:100B7C001B68504A82FB03125211DB17D31A484AE6
:100B8C001360514B1B684B4A82FB03125211DB174B
:100B9C00D31A4E4A13604C4B1B68184600F0E0FE0B
:100BAC003D4B00221A604A4B1B68012B40F0BC8065
:100BBC0001224021374801F092FB01228021354867
:100BCC0001F08DFB01224FF48071324801F087FB5C
:100BDC0001224FF400712F4801F081FB2E4B1B6852
:100BEC00032B00F2928001A252F823F0090C0008AA
:100BFC00330C0008670C0008E10C0008304B1B6834
:100C0C00224A82FB03129210DB17D31A204A13607C
:100C1C001F4B1B68184600F0F1FC002240211D48B8
:100C2C0001F05DFB71E0264B1968184B83FB012327
:100C3C009A10CB17D21A13469B0013445B00CA1AA6
:100C4C00134B1A60124B1B68184600F0D7FC00229D
:100C5C008021104801F043FB57E00B4B1B680B4AFB
:100C6C0082FB03129210DB17D31A094A1360084B4C
:100C7C001B68184600F0C2FC00224FF48071054836
:100C8C0001F02DFB41E000BF700000206766666636
:100C9C0080000020000801407C000020C0000020E3
:100CAC00E800002094000020000C0140A800002067
:100CBC00A00000201F85EB51EC0000209C000020C0
:100CCC00E400002074000020980000207800002030
:100CDC00B8000020254B1968254B83FB01239A1083
:100CEC00CB17D21A13469B0013445B00CA1A214B34
:100CFC001A60204B1B68184600F080FC00224FF451
:100D0C0000711D4801F0EBFA00BF1C4B1B6801334E
:100D1C005A4203F0030302F0030258BF5342174A2E
:100D2C001360192000F044FE154B1B68012B0CD1ED
:100D3C00144B1B68013B134A13600C4B1B68013BA3
:100D4C000A4A1360642000F047FEFFF7F9F90346E6
:100D5C00012B02D10C4B0A221A6000BF04E000BF29
:100D6C0002E000BF00E000BF00BF80BD70000020AB
:100D7C006766666680000020000801407C00002049
:100D8C00C0000020E40000209400002080B500AFDB
:100D9C00BA4B1B680A3B032B00F2DD8201A252F80E
:100DAC0023F000BFC10D00084B0E0008DB0F00083C
:100DBC009511000801224021B14801F090FA01225E
:100DCC008021AF4801F08BFA01224FF48071AC48BE
:100DDC0001F085FA01224FF40071A94801F07FFA65
:100DEC0000228021A74801F07AFA00224FF480718A
:100DFC00A44801F074FA00224FF40071A14801F0EC
:100E0C006EFA00224FF480619E4801F068FA0022CD
:100E1C004FF400619B4801F062FA00224FF48051BC
:100E2C00984801F05CFA954B0B221A60322000F0C6
:100E3C00ABFD642000F0BCFD192000F0E1FD924BED
:100E4C001B68012B0BD180218E4801F060FA4FF406
:100E5C0080618C4801F05BFA322000F095FD8B4BE1
:100E6C001B68012B40F0828001224021844801F054
:100E7C0036FA01228021824801F031FA01224FF426
:100E8C0080717F4801F02BFA01224FF400717C48ED
:100E9C0001F025FA7E4B1B68032B58D801A252F89F
:100EAC0023F000BFC10E0008DD0E0008F90E00088B
:100EBC00250F0008774B00221A60764B1B681846EA
:100ECC0000F09CFB002240216D4801F008FA3EE046
:100EDC00704B02221A606F4B1B68184600F08EFB99
:100EEC0000228021664801F0FAF930E06A4B1B6859
:100EFC006A4A82FB03129210DB17D31A654A1360FD
:100F0C00644B1B68184600F079FB00224FF480718B
:100F1C005B4801F0E4F91AE05F4B19685F4B83FB07
:100F2C0001239A10CB17D21A13469B0013445B0073
:100F3C00CA1A584B1A60574B1B68184600F05EFBD8
:100F4C0000224FF400714E4801F0C9F900BF504B1C
:100F5C001B6801335A4203F0030302F0030258BF2B
:100F6C0053424B4A1360192000F04AFDFFF7E8F892
:100F7C000346012B13D100228021424801F0AFF926
:100F8C0000224FF480613F4801F0A9F9424B002246
:100F9C001A603F4B00221A60384B0C221A60FFF784
:100FAC00E1F80346012B04D13B4B1B6801333A4A51
:100FBC001360FFF7E9F80346012B40F0CE81364B66
:100FCC001B68374A1360344B00221A60C5E12E4B64
:100FDC001B68012B0CD14FF480712A4801F097F952
:100FEC004FF40061274801F092F9322000F0CCFC5C
:100FFC00264B1B68012B40F0958001224021204894
:10100C0001F06DF9012280211D4801F068F90122DF
:10101C004FF480711A4801F062F901224FF400710B
:10102C00174801F05CF91A4B1B68032B6BD801A213
:10103C0052F823F0511000086D100008B110000890
:10104C00DD100008134B00221A60124B1B68184667
:10105C0000F0D4FA00224021094801F040F952E096
:10106C000C4B03221A600B4B1B68184600F0C6FA97
:10107C0000228021024801F032F944E09400002063
:10108C0000080140000C0140B0000020C800002006
:10109C0090000020880000208400002067666666AF
:1010AC00F0000020B04B1B68B04A82FB0312921078
:1010BC00DB17D31AAE4A1360AD4B1B68184600F011
:1010CC009DFA00224FF48071AA4801F008F91AE049
:1010DC00A54B1968A54B83FB01239A10CB17D21A89
:1010EC0013469B0013445B00CA1AA14B1A60A04B19
:1010FC001B68184600F082FA00224FF400719D48DC
:10110C0001F0EDF800BF9C4B1B6801335A4203F011
:10111C00030302F0030258BF5342974A136019208D
:10112C0000F06EFCFFF70CF80346012B14D10022E3
:10113C004FF48071914801F0D2F800224FF4006115
:10114C008E4801F0CCF88E4B0D221A60864B002293
:10115C001A60894B00221A60FFF704F80346012B32
:10116C0004D1814B1B6801337F4A1360FFF70CF8E5
:10117C000346012B40F0F3807B4B1B68814A1360C4
:10118C00794B00221A60EAE07F4B1B68012B0CD1D3
:10119C004FF40071794801F0BAF84FF48051774858
:1011AC0001F0B5F8322000F0EFFB784B1B68012BF7
:1011BC0040F08280012240216E4801F090F801221B
:1011CC0080216C4801F08BF801224FF48071694842
:1011DC0001F085F801224FF40071664801F07FF8A8
:1011EC00654B1B68032B58D801A252F823F000BFA3
:1011FC000D1200082912000845120008711200088F
:10120C005B4B00221A605A4B1B68184600F0F6F92B
:10121C0000224021574801F062F83EE0544B042272
:10122C001A60534B1B68184600F0E8F90022802125
:10123C00504801F054F830E04B4B1B684B4A82FB92
:10124C0003129210DB17D31A494A1360484B1B68E0
:10125C00184600F0D3F900224FF48071454801F094
:10126C003EF81AE0404B1968404B83FB01239A105F
:10127C00CB17D21A13469B0013445B00CA1A3C4B83
:10128C001A603B4B1B68184600F0B8F900224FF46B
:10129C000071384801F023F800BF374B1B6801334D
:1012AC005A4203F0030302F0030258BF5342324A7E
:1012BC001360192000F0A4FBFEF742FF0346012B3C
:1012CC0032D1334B1A682F4B1B681A44314B1B68B5
:1012DC009A4214D12F4B1B68642202FB03F32E4A53
:1012EC001360284B1B68642202FB03F32B4A136028
:1012FC00274B1B68642202FB03F3294A136000226C
:10130C004FF400711D4800F0EAFF00224FF48051A9
:10131C001A4800F0E4FF1A4B01221A60124B00220B
:10132C001A60154B00221A60FEF71CFF0346012BB6
:10133C0004D10D4B1B6801330B4A1360FEF724FFDD
:10134C000346012B0DD1084B1B68114A1360064B49
:10135C0000221A6005E000BF04E000BF02E000BFFD
:10136C0000E000BF00BF80BD840000206766666699
:10137C00880000200008014090000020000C014073
:10138C00940000208C000020B0000020C800002039
:10139C00F4000020F0000020A00000209C000020A1
:1013AC009800002080B500AF00F098FC00F024F805
:1013BC0000F0AAF800F05CF80A4801F0EDFB0A4BCB
:1013CC0001221A60094B4FF496721A60084BC8221E
:1013DC001A60084B4FF4FA721A60FEF7F5FFFFF72C
:1013EC00D5FCFAE7F80000209400002098000020BB
:1013FC009C000020A000002080B590B000AF07F149
:10140C00180328220021184601F076FF3B1D00220C
:10141C001A605A609A60DA601A610223BB61012378
:10142C00BB621023FB6200237B6307F11803184691
:10143C0000F086FF0346002B01D000F0D9F80F23F3
:10144C007B600023BB600023FB6000233B61002317
:10145C007B613B1D0021184601F0F2F90346002B7D
:10146C0001D000F0C5F800BF4037BD4680BD00007C
:10147C0080B586B000AF07F1080300221A605A60ED
:10148C009A60DA603B4600221A605A601D4B4FF09E
:10149C0080421A601B4B41F63F725A60194B002276
:1014AC009A60184B0922DA60164B00221A61154B10
:1014BC0000229A61134801F01FFB0346002B01D058
:1014CC0000F096F84FF48053BB6007F108031946FF
:1014DC000C4801F09DFC0346002B01D000F088F86D
:1014EC0000233B6000237B603B461946054801F016
:1014FC0075FE0346002B01D000F07AF800BF1837B8
:10150C00BD4680BDF800002080B586B000AF07F165
:10151C00080300221A605A609A60DA60294B9B69B2
:10152C00284A43F004039361264B9B6903F00403A0
:10153C007B607B68234B9B69224A43F008039361D1
:10154C00204B9B6903F008033B603B6800224FF47F
:10155C0070711D4800F0C3FE002241F6FF711B485C
:10156C0000F0BDFE4FF47073BB600123FB600023E1
:10157C003B6102237B6107F108031946124800F016
:10158C001DFD41F6FF73BB600123FB6000233B6133
:10159C0002237B6107F1080319460C4800F00EFD8D
:1015AC004FF4E053BB600023FB6001233B6107F168
:1015BC0008031946044800F001FD00BF1837BD466A
:1015CC0080BD00BF0010024000080140000C01402B
:1015DC0080B582B000AF786000F026FAFEF70AFE04
:1015EC00FEF756FEFEF7A2FE00BF0837BD4680BDD3
:1015FC0080B400AF72B600BFFEE7000080B582B0C9
:10160C0000AF78607B68092B00F2808101A252F850
:10161C0023F000BF4916000891160008D9160008DF
:10162C002117000869170008B1170008F9170008FE
:10163C004118000889180008D1180008002201215F
:10164C00C64800F04CFE00220221C44800F047FEC0
:10165C0000220421C14800F042FE00220821BF48AC
:10166C0000F03DFE00221021BC4800F038FE0022A4
:10167C002021BA4800F033FE01224021B74800F087
:10168C002EFE67E101220121B44800F028FE002261
:10169C000221B24800F023FE00220421AF4800F0E2
:1016AC001EFE01220821AD4800F019FE0122102176
:1016BC00AA4800F014FE01222021A84800F00FFED9
:1016CC0001224021A54800F00AFE43E1002201213D
:1016DC00A24800F004FE00220221A04800F0FFFD09
:1016EC00012204219D4800F0FAFD002208219B48AC
:1016FC0000F0F5FD00221021984800F0F0FD0122C9
:10170C002021964800F0EBFD00224021934800F088
:10171C00E6FD1FE100220121904800F0E0FD0022CF
:10172C0002218E4800F0DBFD002204218B4800F0E2
:10173C00D6FD00220821894800F0D1FD012210219C
:10174C00864800F0CCFD01222021844800F0C7FD22
:10175C0000224021814800F0C2FDFBE00122012162
:10176C007E4800F0BCFD002202217C4800F0B7FD51
:10177C0000220421794800F0B2FD012208217748AB
:10178C0000F0ADFD01221021744800F0A8FD0022EC
:10179C002021724800F0A3FD002240216F4800F088
:1017AC009EFDD7E0002201216C4800F098FD01223B
:1017BC0002216A4800F093FD00220421674800F0E2
:1017CC008EFD00220821654800F089FD01221021C0
:1017DC00624800F084FD00222021604800F07FFD6B
:1017EC00002240215D4800F07AFDB3E00022012187
:1017FC005A4800F074FD01220221584800F06FFD98
:10180C0000220421554800F06AFD002208215348AB
:10181C0000F065FD00221021504800F060FD002210
:10182C0020214E4800F05BFD002240214B4800F087
:10183C0056FD8FE000220121484800F050FD0022A7
:10184C000221464800F04BFD00220421434800F0E1
:10185C0046FD01220821414800F041FD01221021E2
:10186C003E4800F03CFD012220213C4800F037FDB1
:10187C0001224021394800F032FD6BE000220121A9
:10188C00364800F02CFD00220221344800F027FDE0
:10189C0000220421314800F022FD002208212F48AB
:1018AC0000F01DFD002210212C4800F018FD002234
:1018BC0020212A4800F013FD00224021274800F087
:1018CC000EFD47E000220121244800F008FD002213
:1018DC000221224800F003FD002204211F4800F0E1
:1018EC00FEFC002208211D4800F0F9FC0122102109
:1018FC001A4800F0F4FC00222021184800F0EFFCFC
:10190C0000224021154800F0EAFC23E001220121CD
:10191C00124800F0E4FC01220221104800F0DFFC28
:10192C00012204210D4800F0DAFC012208210B48A9
:10193C0000F0D5FC01221021084800F0D0FC012257
:10194C002021064800F0CBFC01224021034800F086
:10195C00C6FC00BF00BF0837BD4680BD000C01406F
:10196C0080B483B000AF7860054A7B681360054B88
:10197C0000221A6000BF0C37BD4680BC704700BF08
:10198C00A4000020A800002080B483B000AF7860D1
:10199C00054A7B681360054B00221A6000BF0C37A8
:1019AC00BD4680BC704700BFAC000020B0000020DA
:1019BC0080B483B000AF7860054A7B681360054B38
:1019CC0000221A6000BF0C37BD4680BC704700BFB8
:1019DC00B4000020B800002080B483B000AF786061
:1019EC00054A7B681360054B00221A6000BF0C3758
:1019FC00BD4680BC704700BFBC000020C00000206A
:101A0C0080B483B000AF7860054A7B681360054BE7
:101A1C0000221A6000BF0C37BD4680BC704700BF67
:101A2C00C4000020C800002080B400AF414B1B68EC
:101A3C00002B0BDD3F4B1B68013B3E4A13603D4BBB
:101A4C001B68002B02DC3C4B01221A603B4B1B68D1
:101A5C00002B0BDD394B1B68013B384A1360374BAD
:101A6C001B68002B02DC364B01221A60354B1B68BD
:101A7C00002B0BDD334B1B68013B324A1360314B9F
:101A8C001B68002B02DC304B01221A602F4B1B68A9
:101A9C00002B0BDD2D4B1B68013B2C4A13602B4B91
:101AAC001B68002B02DC2A4B01221A60294B1B6895
:101ABC00002B0BDD274B1B68013B264A1360254B83
:101ACC001B68002B02DC244B01221A60234B1B6881
:101ADC00002B0BDD214B1B68013B204A13601F4B75
:101AEC001B68002B02DC1E4B01221A601D4B1B686D
:101AFC00002B0BDD1B4B1B68013B1A4A1360194B67
:101B0C001B68002B02DC184B01221A60174B1B6858
:101B1C00002B0BDD154B1B68013B144A1360134B58
:101B2C001B68002B02DC124B01221A6000BFBD4661
:101B3C0080BC7047A4000020A8000020AC0000204E
:101B4C00B0000020B4000020B8000020BC00002031
:101B5C00C0000020C4000020C8000020CC000020E1
:101B6C00D0000020D4000020D8000020DC00002091
:101B7C00E000002080B485B000AF154B9B69144A7F
:101B8C0043F001039361124B9B6903F00103BB60AB
:101B9C00BB680F4BDB690E4A43F08053D3610C4B8F
:101BAC00DB6903F080537B607B680A4B5B68FB60EE
:101BBC00FB6823F0E063FB60FB6843F08063FB6031
:101BCC00044AFB68536000BF1437BD4680BC7047A5
:101BDC00001002400000014080B584B000AF786076
:101BEC007B681B68B3F1804F13D10C4BDB690B4A3C
:101BFC0043F00103D361094BDB6903F00103FB6084
:101C0C00FB68002200211C2000F0A1F91C2000F030
:101C1C00BAF900BF1037BD4680BD00BF00100240AE
:101C2C0080B400AFFEE780B400AFFEE780B400AF35
:101C3C00FEE780B400AFFEE780B400AFFEE780B4EF
:101C4C0000AF00BFBD4680BC704780B400AF00BF82
:101C5C00BD4680BC704780B400AF00BFBD4680BCA1
:101C6C00704780B500AF00F07FF800BF80BD00006A
:101C7C0080B500AF024800F0DBFF00BF80BD00BFA5
:101C8C00F800002080B400AF00BFBD4680BC704798
:101C9C00FFF7F8FF0B480C490C4A002302E0D4581C
:101CAC00C4500433C4188C42F9D3094A094C00239C
:101CBC0001E013600432A242FBD301F0F9FAFFF702
:101CCC0071FB7047000000204800002058330008CA
:101CDC004800002044010020FEE7000080B500AF62
:101CEC00084B1B68074A43F010031360032000F0F5
:101CFC0023F90F2000F008F8FFF73CFF00231846EB
:101D0C0080BD00BF0020024080B582B000AF78607B
:101D1C00124B1A68124B1B7819464FF47A73B3FBAB
:101D2C00F1F3B2FBF3F3184600F03BF90346002B3A
:101D3C0001D001230EE07B680F2B0AD800227968B2
:101D4C004FF0FF3000F003F9064A7B681360002364
:101D5C0000E0012318460837BD4680BD3C0000203A
:101D6C00440000204000002080B400AF054B1B78DD
:101D7C001A46054B1B681344034A136000BFBD464B
:101D8C0080BC7047440000204001002080B400AFAC
:101D9C00024B1B681846BD4680BC704740010020B2
:101DAC0080B485B000AF78607B6803F00703FB60FC
:101DBC000C4BDB68BB60BA684FF6FF031340BB608B
:101DCC00FB681A02BB68134343F0BF6343F4003350
:101DDC00BB60044ABB68D36000BF1437BD4680BCEF
:101DEC00704700BF00ED00E080B400AF044BDB682F
:101DFC001B0A03F007031846BD4680BC704700BFA2
:101E0C0000ED00E080B483B000AF0346FB7197F99E
:101E1C000730002B0BDBFB7903F01F02064997F907
:101E2C0007305B09012000FA02F241F8232000BFC1
:101E3C000C37BD4680BC704700E100E080B483B035
:101E4C0000AF03463960FB7197F90730002B0ADBB2
:101E5C003B68DAB20C4997F907301201D2B20B4445
:101E6C0083F800230AE03B68DAB20849FB7903F0F7
:101E7C000F03043B1201D2B20B441A7600BF0C378D
:101E8C00BD4680BC704700BF00E100E000ED00E003
:101E9C0080B489B000AFF860B9607A60FB6803F079
:101EAC000703FB61FB69C3F10703042B28BF042361
:101EBC00BB61FB690433062B02D9FB69033B00E0D1
:101ECC0000237B614FF0FF32BB6902FA03F3DA4364
:101EDC00BB681A407B699A404FF0FF317B6901FA6D
:101EEC0003F3D9437B680B40134318462437BD4694
:101EFC0080BC704780B582B000AF78607B68013BD6
:101F0C00B3F1807F01D301230FE00A4A7B68013BC8
:101F1C0053600F214FF0FF30FFF790FF054B00226D
:101F2C009A60044B07221A60002318460837BD46F6
:101F3C0080BD00BF10E000E080B582B000AF7860DB
:101F4C007868FFF72DFF00BF0837BD4680BD80B510
:101F5C0086B000AF0346B9607A60FB7300237B61E7
:101F6C00FFF742FF78617A68B9687869FFF790FFEC
:101F7C00024697F90F3011461846FFF75FFF00BF76
:101F8C001837BD4680BD80B582B000AF0346FB71EB
:101F9C0097F907301846FFF735FF00BF0837BD46E5
:101FAC0080BD80B582B000AF78607868FFF7A2FF83
:101FBC00034618460837BD4680BD000080B48BB080
:101FCC0000AF7860396000237B6200233B6248E1FC
:101FDC0001227B6A02FA03F3FB613B681B68FA6916
:101FEC001340BB61BA69FB699A4240F037813B6888
:101FFC005B68A34A93425ED0A14A934275D8A14A2A
:10200C00934258D09F4A93426FD89F4A934252D0E2
:10201C009D4A934269D89D4A93424CD09B4A934225
:10202C0063D89B4A934246D0994A93425DD8122B6F
:10203C002AD8122B59D801A252F823F0C320000839
:10204C009D200008AF200008F1200008F7200008B0
:10205C00F7200008F7200008F7200008F7200008F8
:10206C00F7200008F7200008F7200008F7200008E8
:10207C00F7200008F7200008F7200008F7200008D8
:10208C00A5200008B9200008824A934213D02CE006
:10209C003B68DB683B6229E03B68DB6804333B62EE
:1020AC0024E03B68DB6808333B621FE03B68DB687D
:1020BC000C333B621AE03B689B68002B02D1042373
:1020CC003B6213E03B689B68012B05D108233B6204
:1020DC007B68FA691A6109E008233B627B68FA693C
:1020EC005A6103E000233B6200E000BFBB69FF2B99
:1020FC0001D87B6801E07B6804337B61BB69FF2BF3
:10210C0002D87B6A9B0002E07B6A083B9B003B6128
:10211C007B691A680F213B6901FA03F3DB431A4010
:10212C00396A3B6901FA03F31A437B691A603B680D
:10213C005B6803F08053002B00F09080564B9B693A
:10214C00554A43F001039361534B9B6903F0010320
:10215C00BB60BB68514A7B6A9B08023352F8233040
:10216C00FB607B6A03F003039B000F2202FA03F36C
:10217C00DB43FA681340FB607B68494A93420DD0FD
:10218C007B68484A934207D07B68474A934201D107
:10219C00022304E0032302E0012300E000237A6A17
:1021AC0002F0030292009340FA681343FB603B4930
:1021BC007B6A9B080233FA6841F823203B685B6812
:1021CC0003F48013002B06D0384B9A683749BB694F
:1021DC0013438B6006E0354B9A68BB69DB4333498C
:1021EC0013408B603B685B6803F40013002B06D034
:1021FC002E4BDA682D49BB691343CB6006E02B4BA1
:10220C00DA68BB69DB4329491340CB603B685B68E8
:10221C0003F40033002B06D0244B5A682349BB69C6
:10222C0013434B6006E0214B5A68BB69DB431F49E3
:10223C0013404B603B685B6803F48033002B06D083
:10224C001A4B1A681949BB6913430B6006E0174B0C
:10225C001A68BB69DB43154913400B607B6A013379
:10226C007B623B681A687B6A22FA03F3002B7FF4CB
:10227C00AFAE00BF00BF2C37BD4680BC704700BF5F
:10228C00000032100000311000002210000021105C
:10229C00000012100000111000100240000001405C
:1022AC0000080140000C01400010014000040140F6
:1022BC0080B485B000AF78600B467B807B689A68F1
:1022CC007B881340002B02D00123FB7301E0002319
:1022DC00FB73FB7B18461437BD4680BC704780B43B
:1022EC0083B000AF78600B467B8013467B707B78A5
:1022FC00002B03D07A887B681A6103E07B881A0470
:10230C007B681A6100BF0C37BD4680BC704780B437
:10231C0085B000AF78600B467B807B68DB68FB6028
:10232C007A88FB6813401A04FB68D9437B880B40FE
:10233C001A437B681A6100BF1437BD4680BC7047D6
:10234C0080B586B000AF78607B68002B01D101238B
:10235C006CE27B681B6803F00103002B00F08780A4
:10236C00924B5B6803F00C03042B0CD08F4B5B6817
:10237C0003F00C03082B12D18C4B5B6803F48033F5
:10238C00B3F5803F0BD1894B1B6803F40033002B52
:10239C006CD07B685B68002B68D1012346E27B68BC
:1023AC005B68B3F5803F06D1804B1B687F4A43F4D2
:1023BC00803313602EE07B685B68002B0CD17B4B69
:1023CC001B687A4A23F480331360784B1B68774A76
:1023DC0023F4802313601DE07B685B68B3F5A02FAA
:1023EC000CD1724B1B68714A43F4802313606F4B02
:1023FC001B686E4A43F4803313600BE06B4B1B6815
:10240C006A4A23F480331360684B1B68674A23F4D1
:10241C00802313607B685B68002B13D0FFF7B6FC3E
:10242C00386108E0FFF7B2FC02463B69D31A642B13
:10243C0001D90323FAE15D4B1B6803F40033002B35
:10244C00F0D014E0FFF7A2FC386108E0FFF79EFC27
:10245C0002463B69D31A642B01D90323E6E1534BA3
:10246C001B6803F40033002BF0D100E000BF7B6845
:10247C001B6803F00203002B63D04C4B5B6803F02A
:10248C000C03002B0BD0494B5B6803F00C03082B9F
:10249C001CD1464B5B6803F48033002B16D1434BA5
:1024AC001B6803F00203002B05D07B681B69012B12
:1024BC0001D00123BAE13D4B1B6823F0F8027B6885
:1024CC005B69DB00394913430B603AE07B681B699D
:1024DC00002B20D0364B01221A60FFF757FC3861D5
:1024EC0008E0FFF753FC02463B69D31A022B01D9D3
:1024FC0003239BE12D4B1B6803F00203002BF0D050
:10250C002A4B1B6823F0F8027B685B69DB002749C8
:10251C0013430B6015E0264B00221A60FFF736FCC4
:10252C00386108E0FFF732FC02463B69D31A022BF4
:10253C0001D903237AE11D4B1B6803F00203002B26
:10254C00F0D17B681B6803F00803002B3AD07B6842
:10255C009B69002B19D0174B01221A60FFF716FC50
:10256C00386108E0FFF712FC02463B69D31A022BD4
:10257C0001D903235AE10D4B5B6A03F00203002BD4
:10258C00F0D0012000F09AFA1CE00A4B00221A60ED
:10259C00FFF7FCFB38610FE0FFF7F8FB02463B69E5
:1025AC00D31A022B08D9032340E100BF00100240CC
:1025BC0000004242800442429E4B5B6A03F00203DD
:1025CC00002BE9D17B681B6803F00403002B00F09F
:1025DC00A6800023FB75974BDB6903F08053002B1F
:1025EC000DD1944BDB69934A43F08053D361914BEB
:1025FC00DB6903F08053BB60BB680123FB758E4B1A
:10260C001B6803F48073002B18D18B4B1B688A4A10
:10261C0043F480731360FFF7B9FB386108E0FFF7F0
:10262C00B5FB02463B69D31A642B01D90323FDE0A9
:10263C00814B1B6803F48073002BF0D07B68DB6844
:10264C00012B06D17B4B1B6A7A4A43F001031362C0
:10265C002DE07B68DB68002B0CD1764B1B6A754A2E
:10266C0023F001031362734B1B6A724A23F00403B9
:10267C0013621CE07B68DB68052B0CD16D4B1B6A6D
:10268C006C4A43F0040313626A4B1B6A694A43F0B9
:10269C00010313620BE0674B1B6A664A23F00103CC
:1026AC001362644B1B6A634A23F0040313627B6856
:1026BC00DB68002B15D0FFF769FB38610AE0FFF7E8
:1026CC0065FB02463B69D31A41F28832934201D929
:1026DC000323ABE0574B1B6A03F00203002BEED035
:1026EC0014E0FFF753FB38610AE0FFF74FFB02469B
:1026FC003B69D31A41F28832934201D9032395E006
:10270C004C4B1B6A03F00203002BEED1FB7D012B1B
:10271C0005D1484BDB69474A23F08053D3617B6872
:10272C00DB69002B00F08180424B5B6803F00C03EB
:10273C00082B61D07B68DB69022B46D13F4B002212
:10274C001A60FFF723FB386108E0FFF71FFB024616
:10275C003B69D31A022B01D9032367E0354B1B6865
:10276C0003F00073002BF0D17B681B6AB3F5803F3C
:10277C0008D1304B5B6823F400327B689B682D4991
:10278C0013434B602B4B5B6823F474127B68196A00
:10279C007B685B6A0B43274913434B60274B012231
:1027AC001A60FFF7F3FA386108E0FFF7EFFA024618
:1027BC003B69D31A022B01D9032337E01D4B1B684D
:1027CC0003F00073002BF0D02FE01C4B00221A609A
:1027DC00FFF7DCFA386108E0FFF7D8FA02463B69EC
:1027EC00D31A022B01D9032320E0124B1B6803F0F0
:1027FC000073002BF0D118E07B68DB69012B01D151
:10280C00012313E00B4B5B68FB60FB6803F4803225
:10281C007B681B6A9A4206D1FB6803F470127B68D2
:10282C005B6A9A4201D0012300E000231846183756
:10283C00BD4680BD00100240007000406000424266
:10284C0080B584B000AF786039607B68002B01D113
:10285C000123D0E06A4B1B6803F007033A689A42E5
:10286C0010D9674B1B6823F0070265493B6813437B
:10287C000B60634B1B6803F007033A689A4201D064
:10288C000123B8E07B681B6803F00203002B20D007
:10289C007B681B6803F00403002B05D0594B5B6865
:1028AC00584A43F4E06353607B681B6803F00803E9
:1028BC00002B05D0534B5B68524A43F46053536072
:1028CC00504B5B6823F0F0027B689B684D491343C7
:1028DC004B607B681B6803F00103002B40D07B68C6
:1028EC005B68012B07D1474B1B6803F40033002BAB
:1028FC0015D101237FE07B685B68022B07D1414B2C
:10290C001B6803F00073002B09D1012373E03D4BCE
:10291C001B6803F00203002B01D101236BE0394B40
:10292C005B6823F003027B685B68364913434B609A
:10293C00FFF72CFAF8600AE0FFF728FA0246FB686A
:10294C00D31A41F28832934201D9032353E02D4B21
:10295C005B6803F00C027B685B689B009A42EBD1CE
:10296C00274B1B6803F007033A689A4210D2244B9A
:10297C001B6823F0070222493B6813430B60204B72
:10298C001B6803F007033A689A4201D0012332E036
:10299C007B681B6803F00403002B08D0194B5B68A1
:1029AC0023F4E0627B68DB68164913434B607B6859
:1029BC001B6803F00803002B09D0124B5B6823F44F
:1029CC0060527B681B69DB000E4913434B6000F0BF
:1029DC0021F802460B4B5B681B0903F00F030A49F5
:1029EC00CB5C22FA03F3094A1360094B1B681846A7
:1029FC00FFF78AF9002318461037BD4680BD00BF8B
:102A0C0000200240001002402C3300083C00002043
:102A1C004000002080B487B000AF0023FB6000238F
:102A2C00BB6000237B6100237B6000233B611E4B5A
:102A3C005B68FB60FB6803F00C03042B02D0082BD3
:102A4C0003D027E0194B3B6127E0FB689B0C03F09C
:102A5C000F03174AD35C7B60FB6803F48033002BB5
:102A6C0010D0114B5B685B0C03F00103114AD35C73
:102A7C00BB607B680D4A02FB03F2BB68B2FBF3F34D
:102A8C007B6104E07B680C4A02FB03F37B617B698E
:102A9C003B6102E0054B3B6100BF3B6918461C37AC
:102AAC00BD4680BC704700BF0010024000127A0087
:102ABC003C3300084C33000800093D0080B485B05D
:102ACC0000AF78600A4B1B680A4AA2FB03235B0A1F
:102ADC007A6802FB03F3FB6000BFFB685A1EFA60C6
:102AEC00002BF9D100BF00BF1437BD4680BC704726
:102AFC003C000020D34D621080B582B000AF7860EE
:102B0C007B68002B01D1012341E07B6893F83D30B9
:102B1C00DBB2002B06D17B68002283F83C2078685E
:102B2C00FFF75AF87B68022283F83D207B681A680D
:102B3C007B6804331946104600F056FA7B68012274
:102B4C0083F846207B68012283F83E207B680122B3
:102B5C0083F83F207B68012283F840207B680122A8
:102B6C0083F841207B68012283F842207B68012294
:102B7C0083F843207B68012283F844207B68012280
:102B8C0083F845207B68012283F83D2000231846FA
:102B9C000837BD4680BD000080B485B000AF7860BA
:102BAC007B6893F83D30DBB2012B01D0012335E07B
:102BBC007B68022283F83D207B681B68DA687B689F
:102BCC001B6842F00102DA607B681B68164A93426C
:102BDC0009D07B681B68B3F1804F04D07B681B68FD
:102BEC00124A934211D17B681B689B6803F0070360
:102BFC00FB60FB68062B10D07B681B681A687B682F
:102C0C001B6842F001021A6007E07B681B681A68B7
:102C1C007B681B6842F001021A60002318461437C7
:102C2C00BD4680BC704700BF002C01400004004032
:102C3C0080B584B000AF78607B681B68DB68FB6094
:102C4C007B681B681B69BB60BB6803F00203002B2D
:102C5C0020D0FB6803F00203002B1BD07B681B68A1
:102C6C006FF002021A617B6801221A777B681B687D
:102C7C009B6903F00303002B03D0786800F098F9EC
:102C8C0005E0786800F08BF9786800F09AF97B68B9
:102C9C0000221A77BB6803F00403002B20D0FB68DA
:102CAC0003F00403002B1BD07B681B686FF004023D
:102CBC001A617B6802221A777B681B689B6903F494
:102CCC004073002B03D0786800F072F905E0786847
:102CDC0000F065F9786800F074F97B6800221A77C7
:102CEC00BB6803F00803002B20D0FB6803F008033B
:102CFC00002B1BD07B681B686FF008021A617B6885
:102D0C0004221A777B681B68DB6903F00303002B32
:102D1C0003D0786800F04CF905E0786800F03FF9D2
:102D2C00786800F04EF97B6800221A77BB6803F0D4
:102D3C001003002B20D0FB6803F01003002B1BD0DA
:102D4C007B681B686FF010021A617B6808221A7787
:102D5C007B681B68DB6903F44073002B03D0786835
:102D6C0000F026F905E0786800F019F9786800F0B1
:102D7C0028F97B6800221A77BB6803F00103002B4B
:102D8C000CD0FB6803F00103002B07D07B681B6899
:102D9C006FF001021A617868FEF71AFCBB6803F049
:102DAC008003002B0CD0FB6803F08003002B07D0B2
:102DBC007B681B686FF080021A61786800F06FFA0C
:102DCC00BB6803F04003002B0CD0FB6803F04003FE
:102DDC00002B07D07B681B686FF040021A61786883
:102DEC0000F0F8F8BB6803F02003002B0CD0FB6854
:102DFC0003F02003002B07D07B681B686FF02002C8
:102E0C001A61786800F042FA00BF1037BD4680BDE9
:102E1C0080B584B000AF786039600023FB737B68A9
:102E2C0093F83C30012B01D10223B4E07B680122E2
:102E3C0083F83C207B68022283F83D207B681B686A
:102E4C009B68BB60BB6823F07703BB60BB6823F453
:102E5C007F43BB607B681B68BA689A603B681B68E1
:102E6C00B3F5005F3ED0B3F5005F00F28780B3F599
:102E7C00805F00F08680B3F5805F7FD8702B1AD00E
:102E8C00702B7BD8602B50D0602B77D8502B3CD03C
:102E9C00502B73D8402B58D0402B6FD8302B64D08C
:102EAC00302B6BD8202B60D0202B67D8002B5CD01C
:102EBC00102B5AD062E07B6818683B6899683B68B5
:102ECC005A683B68DB6800F06AF97B681B689B6892
:102EDC00BB60BB6843F07703BB607B681B68BA6858
:102EEC009A604FE07B6818683B6899683B685A6841
:102EFC003B68DB6800F053F97B681B689A687B6859
:102F0C001B6842F480429A603CE07B6818683B681E
:102F1C0059683B68DB681A4600F0CAF87B681B6886
:102F2C005021184600F021F92CE07B6818683B68AA
:102F3C0059683B68DB681A4600F0E8F87B681B6848
:102F4C006021184600F011F91CE07B6818683B689A
:102F5C0059683B68DB681A4600F0AAF87B681B6866
:102F6C004021184600F001F90CE07B681A683B68B8
:102F7C001B681946104600F0F8F803E00123FB73B8
:102F8C0000E000BF7B68012283F83D207B680022B3
:102F9C0083F83C20FB7B18461037BD4680BD80B4BF
:102FAC0083B000AF786000BF0C37BD4680BC704763
:102FBC0080B483B000AF786000BF0C37BD4680BCD6
:102FCC00704780B483B000AF786000BF0C37BD464B
:102FDC0080BC704780B483B000AF786000BF0C3702
:102FEC00BD4680BC7047000080B485B000AF7860EF
:102FFC0039607B681B68FB607B682B4A934207D067
:10300C007B68B3F1804F03D07B68284A934208D188
:10301C00FB6823F07003FB603B685B68FA68134342
:10302C00FB607B68204A934207D07B68B3F1804FEA
:10303C0003D07B681D4A934208D1FB6823F440738C
:10304C00FB603B68DB68FA681343FB60FB6823F0AA
:10305C0080023B685B691343FB607B68FA681A600B
:10306C003B689A687B68DA623B681A687B689A628C
:10307C007B680D4A934203D13B681A697B681A63DB
:10308C007B6801225A617B681B6903F00103002BEA
:10309C0005D07B681B6923F001027B681A6100BFB5
:1030AC001437BD4680BC7047002C01400004004022
:1030BC0080B487B000AFF860B9607A60FB681B6AB7
:1030CC007B61FB681B6A23F00102FB681A62FB68D8
:1030DC009B693B613B6923F0F0033B617B681B01FF
:1030EC003A6913433B617B6923F00A037B617A697C
:1030FC00BB6813437B61FB683A699A61FB687A6928
:10310C001A6200BF1C37BD4680BC704780B487B0C4
:10311C0000AFF860B9607A60FB681B6A7B61FB6882
:10312C001B6A23F01002FB681A62FB689B693B6107
:10313C003B6923F470433B617B681B033A6913437F
:10314C003B617B6923F0A0037B61BB681B017A693F
:10315C0013437B61FB683A699A61FB687A691A626E
:10316C0000BF1C37BD4680BC704780B485B000AF33
:10317C00786039607B689B68FB60FB6823F07003A8
:10318C00FB603A68FB68134343F00703FB607B6802
:10319C00FA689A6000BF1437BD4680BC704780B493
:1031AC0087B000AFF860B9607A603B60FB689B68E1
:1031BC007B617B6923F47F437B613B681A027B68EC
:1031CC001A43BB6813437A6913437B61FB687A69C2
:1031DC009A6000BF1C37BD4680BC704780B485B078
:1031EC0000AF786039607B6893F83C30012B01D1DB
:1031FC00022341E07B68012283F83C207B68022299
:10320C0083F83D207B681B685B68FB607B681B68F0
:10321C009B68BB60FB6823F07003FB603B681B681A
:10322C00FA681343FB607B681B68FA685A607B681A
:10323C001B68144A934209D07B681B68B3F1804F1A
:10324C0004D07B681B68104A93420CD1BB6823F0F6
:10325C008003BB603B685B68BA681343BB607B68E8
:10326C001B68BA689A607B68012283F83D207B68F2
:10327C00002283F83C20002318461437BD4680BC3E
:10328C00704700BF002C01400004004080B483B0A4
:10329C0000AF786000BF0C37BD4680BC704780B46F
:1032AC0083B000AF786000BF0C37BD4680BC704760
:1032BC0070B500260C4D0D4C641BA410A64209D110
:1032CC0000F022F800260A4D0A4C641BA410A642FA
:1032DC0005D170BD55F8043B98470136EEE755F81B
:1032EC00043B98470136F2E750330008503300088E
:1032FC00503300085433000803460244934200D173
:10330C00704703F8011BF9E7F8B500BFF8BC08BC1F
:10331C009E467047F8B500BFF8BC08BC9E46704787
:10332C000000000000000000010203040607080969
:10333C0002030405060708090A0B0C0D0E0F1010EA
:04334C00010200007A
:04335000310100083F
:043354000D0100085F
:103358000100000001000000010000000100000061
:103368000100000001000000010000000100000051
:103378000100000001000000010000000100000041
:10338800C8000000C8000000C800000000127A0051
:0833980010000000010000001C
:0400000508001C9D36
:00000001FF
